{
  "_format": "hh-sol-artifact-1",
  "contractName": "PredictionPool",
  "sourceName": "contracts/PredictionPool.sol",
  "abi": [
    {
      "inputs": [
        {
          "internalType": "address",
          "name": "_feeWallet",
          "type": "address"
        }
      ],
      "stateMutability": "nonpayable",
      "type": "constructor"
    },
    {
      "anonymous": false,
      "inputs": [
        {
          "indexed": true,
          "internalType": "uint256",
          "name": "roundId",
          "type": "uint256"
        },
        {
          "indexed": true,
          "internalType": "address",
          "name": "user",
          "type": "address"
        },
        {
          "indexed": false,
          "internalType": "enum PredictionPool.Position",
          "name": "position",
          "type": "uint8"
        },
        {
          "indexed": false,
          "internalType": "uint256",
          "name": "amount",
          "type": "uint256"
        }
      ],
      "name": "BetPlaced",
      "type": "event"
    },
    {
      "anonymous": false,
      "inputs": [
        {
          "indexed": true,
          "internalType": "uint256",
          "name": "roundId",
          "type": "uint256"
        },
        {
          "indexed": true,
          "internalType": "address",
          "name": "user",
          "type": "address"
        },
        {
          "indexed": false,
          "internalType": "uint256",
          "name": "amount",
          "type": "uint256"
        }
      ],
      "name": "PayoutClaimed",
      "type": "event"
    },
    {
      "anonymous": false,
      "inputs": [
        {
          "indexed": true,
          "internalType": "uint256",
          "name": "roundId",
          "type": "uint256"
        },
        {
          "indexed": false,
          "internalType": "uint256",
          "name": "endingPrice",
          "type": "uint256"
        },
        {
          "indexed": false,
          "internalType": "enum PredictionPool.Outcome",
          "name": "outcome",
          "type": "uint8"
        },
        {
          "indexed": false,
          "internalType": "uint256",
          "name": "totalPool",
          "type": "uint256"
        },
        {
          "indexed": false,
          "internalType": "uint256",
          "name": "feePaid",
          "type": "uint256"
        }
      ],
      "name": "RoundResolved",
      "type": "event"
    },
    {
      "anonymous": false,
      "inputs": [
        {
          "indexed": true,
          "internalType": "uint256",
          "name": "roundId",
          "type": "uint256"
        },
        {
          "indexed": false,
          "internalType": "string",
          "name": "symbol",
          "type": "string"
        },
        {
          "indexed": false,
          "internalType": "uint256",
          "name": "duration",
          "type": "uint256"
        },
        {
          "indexed": false,
          "internalType": "uint256",
          "name": "startTime",
          "type": "uint256"
        },
        {
          "indexed": false,
          "internalType": "uint256",
          "name": "endTime",
          "type": "uint256"
        },
        {
          "indexed": false,
          "internalType": "uint256",
          "name": "startPrice",
          "type": "uint256"
        }
      ],
      "name": "RoundStarted",
      "type": "event"
    },
    {
      "inputs": [],
      "name": "FEE_PERCENT",
      "outputs": [
        {
          "internalType": "uint256",
          "name": "",
          "type": "uint256"
        }
      ],
      "stateMutability": "view",
      "type": "function"
    },
    {
      "inputs": [],
      "name": "WINNER_PERCENT",
      "outputs": [
        {
          "internalType": "uint256",
          "name": "",
          "type": "uint256"
        }
      ],
      "stateMutability": "view",
      "type": "function"
    },
    {
      "inputs": [
        {
          "internalType": "uint256",
          "name": "_roundId",
          "type": "uint256"
        }
      ],
      "name": "claimPayout",
      "outputs": [],
      "stateMutability": "nonpayable",
      "type": "function"
    },
    {
      "inputs": [],
      "name": "feeWallet",
      "outputs": [
        {
          "internalType": "address",
          "name": "",
          "type": "address"
        }
      ],
      "stateMutability": "view",
      "type": "function"
    },
    {
      "inputs": [
        {
          "internalType": "uint256",
          "name": "_roundId",
          "type": "uint256"
        }
      ],
      "name": "getRound",
      "outputs": [
        {
          "internalType": "string",
          "name": "symbol",
          "type": "string"
        },
        {
          "internalType": "uint256",
          "name": "startTime",
          "type": "uint256"
        },
        {
          "internalType": "uint256",
          "name": "endTime",
          "type": "uint256"
        },
        {
          "internalType": "uint256",
          "name": "startPrice",
          "type": "uint256"
        },
        {
          "internalType": "uint256",
          "name": "endPrice",
          "type": "uint256"
        },
        {
          "internalType": "uint256",
          "name": "totalUpStakes",
          "type": "uint256"
        },
        {
          "internalType": "uint256",
          "name": "totalDownStakes",
          "type": "uint256"
        },
        {
          "internalType": "enum PredictionPool.Outcome",
          "name": "outcome",
          "type": "uint8"
        },
        {
          "internalType": "bool",
          "name": "isResolved",
          "type": "bool"
        }
      ],
      "stateMutability": "view",
      "type": "function"
    },
    {
      "inputs": [],
      "name": "owner",
      "outputs": [
        {
          "internalType": "address",
          "name": "",
          "type": "address"
        }
      ],
      "stateMutability": "view",
      "type": "function"
    },
    {
      "inputs": [
        {
          "internalType": "uint256",
          "name": "_roundId",
          "type": "uint256"
        },
        {
          "internalType": "bool",
          "name": "_predictUp",
          "type": "bool"
        }
      ],
      "name": "predict",
      "outputs": [],
      "stateMutability": "payable",
      "type": "function"
    },
    {
      "inputs": [
        {
          "internalType": "uint256",
          "name": "_roundId",
          "type": "uint256"
        },
        {
          "internalType": "uint256",
          "name": "_endPrice",
          "type": "uint256"
        }
      ],
      "name": "resolveRound",
      "outputs": [],
      "stateMutability": "nonpayable",
      "type": "function"
    },
    {
      "inputs": [],
      "name": "roundCount",
      "outputs": [
        {
          "internalType": "uint256",
          "name": "",
          "type": "uint256"
        }
      ],
      "stateMutability": "view",
      "type": "function"
    },
    {
      "inputs": [
        {
          "internalType": "uint256",
          "name": "",
          "type": "uint256"
        }
      ],
      "name": "rounds",
      "outputs": [
        {
          "internalType": "uint256",
          "name": "roundId",
          "type": "uint256"
        },
        {
          "internalType": "string",
          "name": "symbol",
          "type": "string"
        },
        {
          "internalType": "uint256",
          "name": "duration",
          "type": "uint256"
        },
        {
          "internalType": "uint256",
          "name": "startTime",
          "type": "uint256"
        },
        {
          "internalType": "uint256",
          "name": "endTime",
          "type": "uint256"
        },
        {
          "internalType": "uint256",
          "name": "startPrice",
          "type": "uint256"
        },
        {
          "internalType": "uint256",
          "name": "endPrice",
          "type": "uint256"
        },
        {
          "internalType": "uint256",
          "name": "totalUpStakes",
          "type": "uint256"
        },
        {
          "internalType": "uint256",
          "name": "totalDownStakes",
          "type": "uint256"
        },
        {
          "internalType": "enum PredictionPool.Outcome",
          "name": "outcome",
          "type": "uint8"
        },
        {
          "internalType": "bool",
          "name": "isResolved",
          "type": "bool"
        },
        {
          "internalType": "uint256",
          "name": "payoutPerWei",
          "type": "uint256"
        }
      ],
      "stateMutability": "view",
      "type": "function"
    },
    {
      "inputs": [
        {
          "internalType": "string",
          "name": "_symbol",
          "type": "string"
        },
        {
          "internalType": "uint256",
          "name": "_duration",
          "type": "uint256"
        },
        {
          "internalType": "uint256",
          "name": "_startPrice",
          "type": "uint256"
        }
      ],
      "name": "startRound",
      "outputs": [
        {
          "internalType": "uint256",
          "name": "",
          "type": "uint256"
        }
      ],
      "stateMutability": "nonpayable",
      "type": "function"
    },
    {
      "inputs": [
        {
          "internalType": "address",
          "name": "_newOwner",
          "type": "address"
        }
      ],
      "name": "transferOwnership",
      "outputs": [],
      "stateMutability": "nonpayable",
      "type": "function"
    },
    {
      "inputs": [
        {
          "internalType": "uint256",
          "name": "",
          "type": "uint256"
        },
        {
          "internalType": "address",
          "name": "",
          "type": "address"
        }
      ],
      "name": "userClaims",
      "outputs": [
        {
          "internalType": "bool",
          "name": "",
          "type": "bool"
        }
      ],
      "stateMutability": "view",
      "type": "function"
    },
    {
      "inputs": [
        {
          "internalType": "uint256",
          "name": "",
          "type": "uint256"
        },
        {
          "internalType": "address",
          "name": "",
          "type": "address"
        }
      ],
      "name": "userPositions",
      "outputs": [
        {
          "internalType": "enum PredictionPool.Position",
          "name": "",
          "type": "uint8"
        }
      ],
      "stateMutability": "view",
      "type": "function"
    },
    {
      "inputs": [
        {
          "internalType": "uint256",
          "name": "",
          "type": "uint256"
        },
        {
          "internalType": "address",
          "name": "",
          "type": "address"
        }
      ],
      "name": "userStakes",
      "outputs": [
        {
          "internalType": "uint256",
          "name": "",
          "type": "uint256"
        }
      ],
      "stateMutability": "view",
      "type": "function"
    }
  ],
  "bytecode": "0x608060405234801561001057600080fd5b50604051611a3d380380611a3d83398101604081905261002f916100b1565b6001600160a01b03811661007e5760405162461bcd60e51b8152602060048201526012602482015271125b9d985b1a5908199959481dd85b1b195d60721b604482015260640160405180910390fd5b60008054336001600160a01b031991821617909155600180549091166001600160a01b03929092169190911790556100e1565b6000602082840312156100c357600080fd5b81516001600160a01b03811681146100da57600080fd5b9392505050565b61194d806100f06000396000f3fe6080604052600436106100e85760003560e01c8063988b8eea1161008a578063ebd389fe11610059578063ebd389fe146102fd578063f113ebcc14610310578063f25f4b5614610325578063f2fde38b1461034557600080fd5b8063988b8eea146102455780639e2dc50014610265578063e8990524146102b0578063eaf98d23146102e857600080fd5b80638ae907f0116100c65780638ae907f0146101585780638c65c81f146101a05780638da5cb5b146101d85780638f1327c01461021057600080fd5b8063127f0b3f146100ed5780637706c0aa146101165780638a69614e14610138575b600080fd5b3480156100f957600080fd5b5061010360025481565b6040519081526020015b60405180910390f35b34801561012257600080fd5b506101366101313660046113b0565b610365565b005b34801561014457600080fd5b506101366101533660046113d2565b6107f9565b34801561016457600080fd5b50610193610173366004611407565b600460209081526000928352604080842090915290825290205460ff1681565b60405161010d919061145d565b3480156101ac57600080fd5b506101c06101bb3660046113d2565b610b93565b60405161010d9c9b9a999897969594939291906114c7565b3480156101e457600080fd5b506000546101f8906001600160a01b031681565b6040516001600160a01b03909116815260200161010d565b34801561021c57600080fd5b5061023061022b3660046113d2565b610c80565b60405161010d99989796959493929190611539565b34801561025157600080fd5b50610103610260366004611598565b610e3c565b34801561027157600080fd5b506102a0610280366004611407565b600660209081526000928352604080842090915290825290205460ff1681565b604051901515815260200161010d565b3480156102bc57600080fd5b506101036102cb366004611407565b600560209081526000928352604080842090915290825290205481565b3480156102f457600080fd5b50610103601481565b61013661030b366004611617565b6110cd565b34801561031c57600080fd5b50610103605081565b34801561033157600080fd5b506001546101f8906001600160a01b031681565b34801561035157600080fd5b5061013661036036600461164c565b61131c565b6000546001600160a01b031633146103985760405162461bcd60e51b815260040161038f9061166e565b60405180910390fd5b6000828152600360208190526040909120908101546103f05760405162461bcd60e51b8152602060048201526014602482015273149bdd5b9908191bd95cc81b9bdd08195e1a5cdd60621b604482015260640161038f565b806004015442101561043c5760405162461bcd60e51b8152602060048201526015602482015274526f756e64206973207374696c6c2061637469766560581b604482015260640161038f565b6009810154610100900460ff161561048f5760405162461bcd60e51b8152602060048201526016602482015275149bdd5b9908185b1c9958591e481c995cdbdb1d995960521b604482015260640161038f565b600082116104df5760405162461bcd60e51b815260206004820152601860248201527f456e64696e67207072696365206d757374206265203e20300000000000000000604482015260640161038f565b6006810182905560098101805461ff001916610100179055600581015460009083111561050e57506001610526565b816005015483101561052257506002610526565b5060035b60098201805482919060ff1916600183600381111561054757610547611433565b021790555060008260080154836007015461056291906116b1565b9050600060646105736014846116c4565b61057d91906116db565b9050600061058b82846116fd565b90508215610638576001546040516000916001600160a01b03169084908381818185875af1925050503d80600081146105e0576040519150601f19603f3d011682016040523d82523d6000602084013e6105e5565b606091505b50509050806106365760405162461bcd60e51b815260206004820152601c60248201527f506c6174666f726d20666565207472616e73666572206661696c656400000000604482015260640161038f565b505b600184600381111561064c5761064c611433565b14801561065d575060008560070154115b1561068d57600785015461067982670de0b6b3a76400006116c4565b61068391906116db565b600a8601556107b2565b60028460038111156106a1576106a1611433565b1480156106b2575060008560080154115b156106ce57600885015461067982670de0b6b3a76400006116c4565b60038460038111156106e2576106e2611433565b1480156106ef5750600083115b15610707578261067982670de0b6b3a76400006116c4565b80156107b2576001546040516000916001600160a01b03169083908381818185875af1925050503d806000811461075a576040519150601f19603f3d011682016040523d82523d6000602084013e61075f565b606091505b50509050806107b05760405162461bcd60e51b815260206004820152601860248201527f5472656173757279207472616e73666572206661696c65640000000000000000604482015260640161038f565b505b867fc504edffd1653904ed22bceb4137475b698e49bf0d5a4f194ab4636d13a134ee878686866040516107e89493929190611710565b60405180910390a250505050505050565b60008181526003602052604090206009810154610100900460ff166108595760405162461bcd60e51b8152602060048201526016602482015275149bdd5b99081b9bdd081c995cdbdb1d9959081e595d60521b604482015260640161038f565b600082815260066020908152604080832033845290915290205460ff16156108bc5760405162461bcd60e51b815260206004820152601660248201527514185e5bdd5d08185b1c9958591e4818db185a5b595960521b604482015260640161038f565b60008281526005602090815260408083203384529091529020548061091c5760405162461bcd60e51b8152602060048201526016602482015275139bc81cdd185ad9481a5b881d1a1a5cc81c9bdd5b9960521b604482015260640161038f565b600083815260046020908152604080832033845290915281205460ff16906003600985015460ff16600381111561095557610955611433565b03610962575060016109ea565b6001600985015460ff16600381111561097d5761097d611433565b14801561099b5750600182600281111561099957610999611433565b145b156109a8575060016109ea565b6002600985015460ff1660038111156109c3576109c3611433565b1480156109e1575060028260028111156109df576109df611433565b145b156109ea575060015b80610a2e5760405162461bcd60e51b81526020600482015260146024820152732cb7ba9030b932903737ba1030903bb4b73732b960611b604482015260640161038f565b60008581526006602090815260408083203384529091528120805460ff191660011790556003600986015460ff166003811115610a6d57610a6d611433565b03610a9c57670de0b6b3a764000085600a015485610a8b91906116c4565b610a9591906116db565b9050610ac2565b670de0b6b3a764000085600a015485610ab591906116c4565b610abf91906116db565b90505b604051600090339083908381818185875af1925050503d8060008114610b04576040519150601f19603f3d011682016040523d82523d6000602084013e610b09565b606091505b5050905080610b535760405162461bcd60e51b815260206004820152601660248201527514185e5bdd5d081d1c985b9cd9995c8819985a5b195960521b604482015260640161038f565b604051828152339088907fe97cee5a4c0549d3fdc81e322b718ddf0aeb3418ec87dce4f9a7fb28d117c3129060200160405180910390a350505050505050565b60036020526000908152604090208054600182018054919291610bb590611736565b80601f0160208091040260200160405190810160405280929190818152602001828054610be190611736565b8015610c2e5780601f10610c0357610100808354040283529160200191610c2e565b820191906000526020600020905b815481529060010190602001808311610c1157829003601f168201915b50505060028401546003850154600486015460058701546006880154600789015460088a015460098b0154600a909b0154999a96999598509396509194909391929160ff80831692610100900416908c565b60606000806000806000806000806000600360008c81526020019081526020016000206040518061018001604052908160008201548152602001600182018054610cc990611736565b80601f0160208091040260200160405190810160405280929190818152602001828054610cf590611736565b8015610d425780601f10610d1757610100808354040283529160200191610d42565b820191906000526020600020905b815481529060010190602001808311610d2557829003601f168201915b50505091835250506002820154602082015260038083015460408301526004830154606083015260058301546080830152600683015460a0830152600783015460c0830152600883015460e083015260098301546101009092019160ff1690811115610db057610db0611433565b6003811115610dc157610dc1611433565b81526020016009820160019054906101000a900460ff16151515158152602001600a8201548152505090508060200151816060015182608001518360a001518460c001518560e00151866101000151876101200151886101400151995099509950995099509950995099509950509193959799909294969850565b600080546001600160a01b03163314610e675760405162461bcd60e51b815260040161038f9061166e565b60008311610eae5760405162461bcd60e51b815260206004820152601460248201527304475726174696f6e206d757374206265203e20360641b604482015260640161038f565b60008211610efe5760405162461bcd60e51b815260206004820152601760248201527f5374617274207072696365206d757374206265203e2030000000000000000000604482015260640161038f565b60028054906000610f0e83611770565b90915550506002546000610f2285426116b1565b905060405180610180016040528083815260200188888080601f016020809104026020016040519081016040528093929190818152602001838380828437600092018290525093855250505060208201889052426040830152606082018490526080820187905260a0820181905260c0820181905260e082018190526101009091019081526000602080830182905260409283018290528582526003815291902082518155908201516001820190610fda90826117ee565b5060408201518160020155606082015181600301556080820151816004015560a0820151816005015560c0820151816006015560e0820151816007015561010082015181600801556101208201518160090160006101000a81548160ff0219169083600381111561104d5761104d611433565b02179055506101408201516009820180549115156101000261ff001990921691909117905561016090910151600a9091015560405182907f22b581f2e1a0aaff6c87d90811b18fc04cb36d0e384a9297faa41e71c46d0111906110bb908a908a908a90429088908c906118ae565b60405180910390a25095945050505050565b6000828152600360208190526040909120908101546111255760405162461bcd60e51b8152602060048201526014602482015273149bdd5b9908191bd95cc81b9bdd08195e1a5cdd60621b604482015260640161038f565b806004015442106111715760405162461bcd60e51b8152602060048201526016602482015275141c99591a58dd1a5bdb9cc8185c994818db1bdcd95960521b604482015260640161038f565b600034116111ba5760405162461bcd60e51b8152602060048201526016602482015275135d5cdd081cdd185ad9481cdbdb5948185b5bdd5b9d60521b604482015260640161038f565b600083815260046020908152604080832033845290915281205460ff1660028111156111e8576111e8611433565b146112295760405162461bcd60e51b8152602060048201526011602482015270105b1c9958591e481c1c99591a58dd1959607a1b604482015260640161038f565b60008261123757600261123a565b60015b600085815260046020908152604080832033845290915290208054919250829160ff1916600183600281111561127257611272611433565b02179055506000848152600560209081526040808320338452909152902034905582156112b857348260070160008282546112ad91906116b1565b909155506112d29050565b348260080160008282546112cc91906116b1565b90915550505b336001600160a01b0316847f4f1eed5e863a822b0f9eb960dfdab2cc5a99beec4b191f2a7a9c7e28e5a15524833460405161130e9291906118fc565b60405180910390a350505050565b6000546001600160a01b031633146113465760405162461bcd60e51b815260040161038f9061166e565b6001600160a01b03811661138e5760405162461bcd60e51b815260206004820152600f60248201526e496e76616c6964206164647265737360881b604482015260640161038f565b600080546001600160a01b0319166001600160a01b0392909216919091179055565b600080604083850312156113c357600080fd5b50508035926020909101359150565b6000602082840312156113e457600080fd5b5035919050565b80356001600160a01b038116811461140257600080fd5b919050565b6000806040838503121561141a57600080fd5b8235915061142a602084016113eb565b90509250929050565b634e487b7160e01b600052602160045260246000fd5b6003811061145957611459611433565b9052565b6020810161146b8284611449565b92915050565b6000815180845260005b818110156114975760208185018101518683018201520161147b565b506000602082860101526020601f19601f83011685010191505092915050565b6004811061145957611459611433565b60006101808e83528060208401526114e18184018f611471565b9150508b60408301528a60608301528960808301528860a08301528760c08301528660e08301528561010083015261151d6101208301866114b7565b92151561014082015261016001529a9950505050505050505050565b600061012080835261154d8184018d611471565b9150508960208301528860408301528760608301528660808301528560a08301528460c083015261158160e08301856114b7565b8215156101008301529a9950505050505050505050565b600080600080606085870312156115ae57600080fd5b843567ffffffffffffffff808211156115c657600080fd5b818701915087601f8301126115da57600080fd5b8135818111156115e957600080fd5b8860208285010111156115fb57600080fd5b6020928301999098509187013596604001359550909350505050565b6000806040838503121561162a57600080fd5b823591506020830135801515811461164157600080fd5b809150509250929050565b60006020828403121561165e57600080fd5b611667826113eb565b9392505050565b60208082526013908201527213db9b1e481bdddb995c8818d85b8818d85b1b606a1b604082015260600190565b634e487b7160e01b600052601160045260246000fd5b8082018082111561146b5761146b61169b565b808202811582820484141761146b5761146b61169b565b6000826116f857634e487b7160e01b600052601260045260246000fd5b500490565b8181038181111561146b5761146b61169b565b8481526080810161172460208301866114b7565b60408201939093526060015292915050565b600181811c9082168061174a57607f821691505b60208210810361176a57634e487b7160e01b600052602260045260246000fd5b50919050565b6000600182016117825761178261169b565b5060010190565b634e487b7160e01b600052604160045260246000fd5b601f8211156117e957600081815260208120601f850160051c810160208610156117c65750805b601f850160051c820191505b818110156117e5578281556001016117d2565b5050505b505050565b815167ffffffffffffffff81111561180857611808611789565b61181c816118168454611736565b8461179f565b602080601f83116001811461185157600084156118395750858301515b600019600386901b1c1916600185901b1785556117e5565b600085815260208120601f198616915b8281101561188057888601518255948401946001909101908401611861565b508582101561189e5787850151600019600388901b60f8161c191681555b5050505050600190811b01905550565b60a081528560a0820152858760c0830137600060c08783010152600060c0601f19601f8901168301019050856020830152846040830152836060830152826080830152979650505050505050565b6040810161190a8285611449565b826020830152939250505056fea2646970667358221220652a146e72eb7059b852ab0eac58658b10b6f26d93f05cc2cb69c15b1b69d6ba64736f6c63430008140033",
  "linkReferences": {},
  "deployedLinkReferences": {}
}